:100000000C94DF000C9407010C9407010C94070179
:100010000C9407010C9407010C9407010C94070140
:100020000C9407010C9407010C9407010C94070130
:100030000C9407010C9407010C9407010C94070120
:100040000C9410070C9407010C94DE060C94B8066F
:100050000C9407010C9407010C9407010C94070100
:100060000C945A070C94070100407A10F35A00A030
:10007000724E18090010A5D4E80000E87648170071
:1000800000E40B54020000CA9A3B000000E1F505B1
:10009000000080969800000040420F000000A086FB
:1000A00001000000102700000000E803000000002D
:1000B0006400000000000A000000000001000000D1
:1000C00000002C76D888DC674F0823DFC1DFAE59EB
:1000D000E1B1B796E5E3E453C63AE651997696E87E
:1000E000E6C28426EB898C9B62ED407C6FFCEFBC02
:1000F0009C9F40F2BAA56FA5F490055A2AF75C932D
:100100006B6CF9676DC11BFCE0E40D47FEF520E662
:10011000B500D0ED902E0300943577050080841E45
:10012000080000204E0A000000C80C333333330FA0
:10013000986E12831141EF8D2114893BE65516CF3D
:10014000FEE6DB18D1844B381BF77C1D901DA4BB49
:10015000E424203284725E228100C9F124ECA1E5FE
:100160003D2700000000240027002A0000000000B6
:10017000250028002B000000000023002600290095
:10018000040404040404040402020202020203033D
:100190000303030301020408102040800102040845
:1001A00010200102040810200000000800020100D5
:1001B000000304070000000000000000AC08112448
:1001C0001FBECFEFD8E0DEBFCDBF24E0AEECB2E083
:1001D00001C01D92AB34B207E1F712E0A0E0B1E03C
:1001E000E0EAF6E202C005900D92AE3CB107D9F705
:1001F00010E0CFEDD0E004C02197FE010E9456111F
:10020000CE3DD107C9F70E9410090C944E130C94EF
:10021000000008950895AF92BF92CF92DF92EF92BF
:10022000FF920F931F93CF93DF936C017B018B01A0
:10023000040F151FEB015E01AE18BF08C017D107F0
:1002400059F06991D601ED91FC910190F081E02D7A
:10025000C6010995892B79F7C501DF91CF911F91CF
:100260000F91FF90EF90DF90CF90BF90AF900895E7
:10027000FC0144815581608171818FE294E00C948E
:100280000B01FC01538D448D252F30E0842F90E02D
:10029000821B930B541710F0CF9608950197089581
:1002A000FC01918D828D981761F0A28DAE0FBF2F4A
:1002B000B11D5D968C91928D9F5F9F73928F90E0A0
:1002C00008958FEF9FEF0895FC01918D828D98170F
:1002D00031F0828DE80FF11D858D90E008958FEF4C
:1002E0009FEF0895FC01918D228D892F90E0805C15
:1002F0009F4F821B91098F73992708958CE693E095
:100300000E94720121E0892B09F420E0822F0895D8
:1003100080E090E0892B29F00E947E0181110C94ED
:1003200000000895FC01A48DA80FB92FB11DA35A98
:10033000BF4F2C91848D90E001968F739927848F05
:10034000A689B7892C93A089B1898C918370806428
:100350008C93938D848D981306C00288F389E02DC9
:1003600080818F7D80830895EF92FF920F931F937A
:10037000CF93DF93EC0181E0888F9B8D8C8D981358
:100380001AC0E889F989808185FF15C09FB7F89464
:10039000EE89FF896083E889F989808183708064B0
:1003A00080839FBF81E090E0DF91CF911F910F91FB
:1003B000FF90EF900895F62E0B8D10E00F5F1F4F0A
:1003C0000F731127E02E8C8D8E110CC00FB607FC19
:1003D000FACFE889F989808185FFF5CFCE010E94A7
:1003E0009201F1CFEB8DEC0FFD2FF11DE35AFF4F82
:1003F000F0829FB7F8940B8FEA89FB898081806235
:10040000CFCFCF93DF93EC01888D8823B9F0AA89F1
:10041000BB89E889F9898C9185FD03C0808186FDBF
:100420000DC00FB607FCF7CF8C9185FFF2CF80810E
:1004300085FFEDCFCE010E949201E9CFDF91CF91F0
:100440000895833081F028F4813099F08230A9F04A
:1004500008958730A9F08830C9F08430B1F48091D4
:1004600080008F7D03C0809180008F778093800013
:10047000089584B58F7784BD089584B58F7DFBCFB3
:100480008091B0008F778093B00008958091B00084
:100490008F7DF9CFCF93DF93282F30E0F901E85516
:1004A000FE4F8491F901EC56FE4FD491F901E058CA
:1004B000FE4FC491CC23A1F081110E942102EC2FA8
:1004C000F0E0EE0FFF1FEA58FE4FA591B491EC91BA
:1004D000ED2381E090E009F480E0DF91CF91089571
:1004E00080E090E0FACF1F93CF93DF93282F30E086
:1004F000F901E855FE4F8491F901EC56FE4FD49175
:10050000F901E058FE4FC491CC23A9F0162F8111B8
:100510000E942102EC2FF0E0EE0FFF1FE459FE4F86
:10052000A591B4918FB7F894EC91111108C0D095B2
:10053000DE23DC938FBFDF91CF911F910895DE2BD7
:10054000F8CFCF93DF9390E0FC01EC56FE4F24915F
:1005500080589E4FFC0184918823C9F090E0880F59
:10056000991FFC01EE59FE4FA591B491FC01E4598D
:10057000FE4FC591D49161110DC09FB7F8948C9135
:10058000209582238C938881282328839FBFDF9125
:10059000CF910895623051F49FB7F8943C91822F27
:1005A000809583238C93E8812E2BEFCF8FB7F8941F
:1005B000EC912E2B2C938FBFEACF3FB7F89480910C
:1005C0005A0390915B03A0915C03B0915D0326B543
:1005D000A89B05C02F3F19F00196A11DB11D3FBF7B
:1005E000BA2FA92F982F8827BC01CD01620F711D4A
:1005F000811D911D42E0660F771F881F991F4A9544
:10060000D1F708958F929F92AF92BF92CF92DF92CF
:10061000EF92FF924B015C010E94DD026B017C01B5
:100620000E94DD026C197D098E099F09683E7340A6
:1006300081059105A8F321E0821A9108A108B1086B
:1006400088EEC80E83E0D81EE11CF11C81149104D1
:10065000A104B10429F7FF90EF90DF90CF90BF90F5
:10066000AF909F908F9008952FB7F89460915603A4
:100670007091570380915803909159032FBF0895AB
:100680000F931F9390912A048091230498132FC0F5
:100690000E94340300912B0410912C0420912D040E
:1006A00030912E04601B710B820B930B6A31710524
:1006B0008105910568F0809129040E944A02892BE6
:1006C00039F080912A0490912404892B80932A0484
:1006D0008091230490912404892B90912A049813EB
:1006E0001EC010922A0481E01F910F9108958091FD
:1006F00029040E944A02892B59F780912A0490917B
:100700002304892B80932A040E94340360932B04D2
:1007100070932C0480932D0490932E04D9CF80E005
:10072000E3CF85ED8093BC008091BC0084FDFCCFBD
:1007300010926403089520910E03260F3327331F70
:1007400021323105ECF420916403FC0190E080E05B
:10075000243069F082E00895A0910E032191AC014C
:1007600042515D4FA40FB52FB11D2C9301968617F2
:1007700098F380910E03680F60930E0380E0089554
:1007800081E008950895E091680380916703E81778
:1007900030F4F0E0E253FD4F808190E008958FEF58
:1007A0009FEF089590916803809167032FEF3FEFCB
:1007B000981748F4E92FF0E0E253FD4F208130E034
:1007C0009F5F90936803C90108958091670390919A
:1007D0006803891B990B0895CF93DF93CB01EA013E
:1007E000642F0E949B03CE01DF91CF910895CF9398
:1007F000DF931F92CDB7DEB7698361E0CE0101962A
:100800000E949B0381E090E00F90DF91CF910895CB
:100810000F931F93CF93DF938C01FC0186810E947D
:100820004A02EC01F80185810E944A02F801948194
:100830009F70CC0FDD1FC82BF4E09F9FC0011124D7
:100840008C5E9E4FC80FD92FD11D8881F8018483FB
:100850008073DF91CF911F910F910895089590E0DB
:1008600080E00895009769F0FC0101900020E9F70D
:100870003197AF01481B590BBC018FE294E00C94F7
:100880000B0190E080E008950F931F93CF93DF93C7
:10089000EC0188819981009759F02A813B812617C4
:1008A000370730F081E0DF91CF911F910F910895CC
:1008B0008B016F5F7F4F0E948112009759F09983DF
:1008C00088831B830A832C813D81232B59F7FC01EC
:1008D0001082E8CF80E0E7CFCF93DF93EC018881EF
:1008E0009981009711F00E94F811198218821D82D7
:1008F0001C821B821A82DF91CF910895EF92FF92A2
:100900000F931F93CF93DF93EC017B011982188221
:100910001B821A821D821C82FB0101900020E9F7D4
:1009200031978F01061B170BB8010E9444048111F7
:1009300009C0CE01DF91CF911F910F91FF90EF90F1
:100940000C946C041D830C83B70188819981DF911D
:10095000CF911F910F91FF90EF900C944713CF927E
:10096000DF92EF92FF920F931F93CF93DF93CDB758
:10097000DEB7A1970FB6F894DEBF0FBECDBF7C01E6
:10098000CB01BA01F7011182108213821282158203
:1009900014828E010F5F1F4F22E044E00E94DE0DA3
:1009A0006C01009771F0FC0101900020E9F731978C
:1009B0008F01081B190BB801C7010E944404811163
:1009C00012C0C7010E946C04A1960FB6F894DEBF56
:1009D0000FBECDBFDF91CF911F910F91FF90EF9090
:1009E000DF90CF900895F70115830483B6018081CD
:1009F00091810E944713E8CFEF92FF920F931F93CC
:100A0000CF93DF93EC01FB01E080F180E114F1046E
:100A100011F10481158101151105A9F08C819D81C9
:100A2000080F191FB801CE010E944404882399F0D1
:100A3000288139818C819D81B701820F931F0E948B
:100A400047131D830C83CE01DF91CF911F910F912E
:100A5000FF90EF900895CE010E946C04F4CFFC014A
:100A6000808191810C94F811CF93DF93EC0160E0C9
:100A70008E810E94730261E08E810E94730260E0A9
:100A80008E810E9473028BE891E00197F1F7DF916C
:100A9000CF910895CF92DF92EF92FF920F931F9321
:100AA000CF93DF936C017C0187E0E80EF11CD0E06E
:100AB000C0E0062F10E0B8010C2E02C075956795B6
:100AC0000A94E2F76170F70181917F010E9473023D
:100AD0002196C430D10579F7C601DF91CF911F91DE
:100AE0000F91FF90EF90DF90CF900C943405CF9250
:100AF000DF92EF92FF920F931F93CF93DF93EC015E
:100B0000F62E642F8C810E9473028D818F3F19F025
:100B100060E00E9473020F2D10E08F8584FF25C0D6
:100B20006E0187E0C80ED11CF12CE12CB8010E2C0F
:100B300002C0759567950A94E2F76170F60181919C
:100B40006F010E947302FFEFEF1AFF0A88E0E816B8
:100B5000F10461F7CE01DF91CF911F910F91FF90CA
:100B6000EF90DF90CF900C943405B80184E0759538
:100B700067958A95E1F7CE010E944A056F2DCE0157
:100B8000DF91CF911F910F91FF90EF90DF90CF9069
:100B90000C944A0540E0682F8FE294E00C947705AE
:100BA00081E00E94CA058BE39FE10197F1F7089568
:100BB000CF93DF93823029F490913E049860909314
:100BC0003E04809342041092430480E480934404E2
:100BD00080E18093450480E58093460461E0809144
:100BE00033040E94A102809134048F3F19F061E028
:100BF0000E94A10261E0809135040E94A102CFE22F
:100C0000D4E09E012F52344080913E0484FD0BC0FD
:100C100084E090E021962817390744F461E08E8142
:100C20000E94A102EECF88E090E0F4CF8BE39DE03C
:100C30000197F1F760E0809133040E94730260E055
:100C4000809135040E947302809134048F3F19F023
:100C500060E00E94730280913E0484FD34C063E032
:100C60008FE294E00E944A05CBE4D6E4CE010197DE
:100C7000F1F763E08FE294E00E944A052197F1F7D3
:100C800063E08FE294E00E944A0583E592E00197D9
:100C9000F1F762E08FE294E00E944A0580913E0401
:100CA00080620E94CA0584E080933F048CE00E9429
:100CB000CA050E94D00582E08093400486E0DF915F
:100CC000CF910C94CA0580620E94CA058BE496E419
:100CD0000197F1F780913E0480620E94CA0583E586
:100CE00092E00197F1F780913E0480620E94CA056C
:100CF000D5CF90914204691710F06FEF690FE62F7E
:100D0000F0E0E15DFB4F9489890F80680C94CA057F
:100D10000E94D00560E080E00E9479068CE591E0B9
:100D20000E94320461E080E00E9479068BE691E047
:100D30000E94320461E08FE00E9479068DE691E026
:100D40000E94320461E081E00E947906E0916A032A
:100D5000F0916B03EE0FFF1FEA5FFE4F80819181E0
:100D60000C94320441E00E94770581E090E0089500
:100D70001F920F920FB60F9211242F933F934F9310
:100D80005F936F937F938F939F93AF93BF93EF93F3
:100D9000FF938CE693E00E949201FF91EF91BF9147
:100DA000AF919F918F917F916F915F914F913F9103
:100DB0002F910F900FBE0F901F9018951F920F92BA
:100DC0000FB60F9211242F938F939F93EF93FF935E
:100DD000E0917C03F0917D038081E0918203F091AA
:100DE000830382FD1BC09081809185038F5F8F7389
:100DF00020918603821741F0E0918503F0E0E459E9
:100E0000FC4F958F80938503FF91EF919F918F9178
:100E10002F910F900FBE0F901F9018958081F4CFE7
:100E20001F920F920FB60F9211242F933F938F931F
:100E30009F93AF93BF938091560390915703A091D6
:100E40005803B09159033091550323E0230F2D37F8
:100E500058F50196A11DB11D2093550380935603AB
:100E600090935703A0935803B093590380915A036A
:100E700090915B03A0915C03B0915D030196A11D6D
:100E8000B11D80935A0390935B03A0935C03B093CE
:100E90005D03BF91AF919F918F913F912F910F90E3
:100EA0000FBE0F901F90189526E8230F0296A11DE4
:100EB000B11DD2CF1F920F920FB60F9211242F9314
:100EC0003F934F935F936F937F938F939F93AF93D2
:100ED000BF93EF93FF938091B900887F803609F428
:100EE0004AC0F0F5883209F4A7C018F5803109F43A
:100EF0009BC0B8F4882309F4F9C0883009F494C081
:100F0000FF91EF91BF91AF919F918F917F916F91E1
:100F10005F914F913F912F910F900FBE0F901F90B7
:100F20001895883109F488C0803251F780933103D5
:100F300014C0803409F49DC040F48033B9F3883381
:100F4000F9F68093310385ECB0C0803509F485C093
:100F5000883509F496C0883499F60E949103D0CF61
:100F6000883909F48CC038F5883729F050F4883670
:100F700011F0803729F683E08093640310923003E8
:100F800057C0883809F47BC0803919F0803809F0DF
:100F9000B7CF80913003803208F071C0E091300308
:100FA00081E08E0F809330038091BB00F0E0E05F22
:100FB000FC4F80833DC0803B39F0E0F4803A09F477
:100FC00079C0883A09F09CCF84E080936403109242
:100FD0000F0310920E03E0916003F09161030995F5
:100FE00080910E0381110FC081E080930E03109257
:100FF000EE0209C0803C09F4A6CF883C09F4A3CFD7
:10100000883B09F07DCFE0910F0381E08E0F809344
:101010000F03F0E0E251FD4F80818093BB0090917F
:101020000F0380910E0329C0809154038093BB006D
:1010300085EC8093BC0064CF909153038091520360
:10104000981758F5E091530381E08E0F8093530376
:10105000F0E0EE5CFC4F8081E9CFE091530381E04A
:101060008E0F809353038091BB00F0E0EE5CFC4F49
:10107000808390915303809152039817C8F285E8BA
:10108000D8CFE091530381E08E0F8093530380917A
:10109000BB00F0E0EE5CFC4F808380916303811124
:1010A0005CCF81E08093620384EA8093BC0010925D
:1010B000640326CF85EC8093BC001092640380917A
:1010C0003003803230F4E0913003F0E0E05FFC4F19
:1010D00010826091300370E0E0915E03F0915F0355
:1010E00080E193E00995109230030ACF109231030A
:1010F00034CF0F931F93CF93DF93EC01162F042F60
:10110000822F188291E0998390E19A8391E19B83E9
:1011100019861A861B861C862F8360E00E94A10216
:1011200061E08F810E9473021D830E8360E0812F36
:101130000E94A10260E08E810E94A10261E08D8187
:101140000E94730261E08E810E9473021C82DF9113
:10115000CF911F910F910895ECE6F3E01382128274
:1011600088EE93E0A0E0B0E084839583A683B78304
:1011700020E331E03183208325EC30E0358724877C
:1011800024EC30E03787268720EC30E0318B208B51
:1011900021EC30E0338B228B22EC30E0358B248B3A
:1011A00026EC30E0378B268B118E128E138E148E28
:1011B000E9E0F4E01382128284839583A683B783E7
:1011C00082E491E091838083EFE2F4E01382128263
:1011D00084E591E0918380838BE084838FEF858326
:1011E0008CE0868385E0878384E0808783E0818745
:1011F00082E082871386148615861686178681E01C
:101200000E94D80520E14FE06EE082E294E00E9467
:10121000790821E147E066E085E194E00C947908E3
:10122000CF93DF93CDB7DEB72F970FB6F894DEBF1D
:101230000FBECDBF789484B5826084BD84B58160D3
:1012400084BD85B5826085BD85B5816085BD809191
:101250006E00816080936E00109281008091810009
:101260008260809381008091810081608093810001
:10127000809180008160809380008091B1008460C3
:101280008093B1008091B00081608093B000809124
:101290007A00846080937A0080917A0082608093E3
:1012A0007A0080917A00816080937A0080917A0040
:1012B000806880937A001092C10062E08EE00E9404
:1012C000A10262E08FE00E94A10262E080E10E9440
:1012D000A10262E086E00E94A10262E087E00E9433
:1012E000A10262E081E10E94A10261E08EE00E9421
:1012F000730261E08FE00E94730261E080E10E946E
:10130000730261E086E00E94730261E087E00E9460
:10131000730261E081E10E94730260E089E00E9453
:10132000A10282E00E94D8050E94D0058FE691E0DC
:101330000E94320461E080E00E9479068BE791E030
:101340000E94320460ED77E080E090E00E940203AA
:101350000E9434030E948806E0917C03F0917D0393
:1013600082E08083E0917803F09179031082E0912C
:101370007A03F0917B038FEC808310928403E091D9
:101380008003F091810386E08083E0917E03F091F9
:101390007F03808180618083E0917E03F0917F03F1
:1013A000808188608083E0917E03F0917F0380815B
:1013B00080688083E0917E03F0917F0380818F7D40
:1013C0008083109268031092670310926603109254
:1013D00065031092640381E08093630310926203BB
:1013E00061E082E10E94730261E083E10E94730286
:1013F0008091B9008E7F8093B9008091B9008D7F74
:101400008093B90088E48093B80085E48093BC00A1
:1014100089E091E090936103809360038AE091E01A
:1014200090935F0380935E0390E0292E90E0392E25
:1014300006E010E082E294E00E9408048F870E9498
:1014400034038F85882329F10E9434032F858091EE
:101450006A0390916B03203209F041C00197909389
:101460006B0380936A0380916A0390916B0397FFEB
:1014700004C010936B0300936A0380916A039091F8
:101480006B03079724F010926B0310926A030E947B
:1014900088060E944003882309F473C20E94340323
:1014A00060E080E00E94790689E891E00E943204C1
:1014B00061E080E00E947906E0916A03F0916B039D
:1014C000E730F10508F053C2E859F54F0C94561176
:1014D000710A840D990D9C0D9F0DA20DA50D01960D
:1014E000BECF87E991E00E9432040E94D00560E0FF
:1014F00080E00E94790640E050E0BA01CE010196FA
:101500000E94AF0464EA71E0CE0107960E947E0457
:10151000BE016F5F7F4FCE0107960E94FC040E94C0
:101520003801CE0107960E942F05CE0101960E9438
:101530002F0561E080E00E94790640E050E0BA01AA
:10154000CE0101960E94AF046FEA71E0CE010796CA
:101550000E947E04BE016F5F7F4FCE0107960E94FE
:10156000FC040E943801CE0107960E942F05CE018F
:1015700001960E942F05412C512C3201530142014A
:101580007301620182E294E00E9408048E8785E183
:1015900094E00E9408048D878E85882309F4B3C0E7
:1015A0000E94340320E030E0A901C301B2010E948F
:1015B00033108111F7C18E8520E030E040E05FE319
:1015C000803209F0EAC1C701B6010E94E4106B0144
:1015D0007C0120E030E0A901C701B6010E94331070
:1015E00087FF0AC020E030E044EB53E4C701B601B6
:1015F0000E94E5106B017C0120E030E044EB53E4F5
:10160000C701B6010E945111181654F420E030E0D1
:1016100044EB53E4C701B6010E94E4106B017C0166
:1016200020E030E0A901C501B4010E94331087FF1A
:101630000AC020E030E044EB53E4C701B6010E9449
:10164000E5106B017C0120E030E044EB53E4C50180
:10165000B4010E945111181654F420E030E044EB1C
:1016600053E4C701B6010E94E4106B017C010E94A3
:10167000D00520E030E0A901C301B2010E9433107F
:1016800060E08111A2C10E947906B701A601CE01D6
:1016900001960E94AF046AEB71E0CE0107960E94AA
:1016A0007E04BE016F5F7F4FCE0107960E94FC044F
:1016B0000E943801CE0107960E942F05CE010196A7
:1016C0000E942F0561E080E00E947906B501A40127
:1016D000CE0101960E94AF0465EC71E0CE01079641
:1016E0000E947E04BE016F5F7F4FCE0107960E946D
:1016F000FC040E943801CE0107960E942F05CE01FE
:1017000001960E942F058D85882309F4B3C00E949D
:10171000340320E030E0A901C301B2010E9433107C
:10172000811185C18D852FE632E143E85AE380328D
:1017300009F078C1C701B6010E94E4106B017C0179
:1017400020E030E0A901C701B6010E94331087FFF5
:101750000AC020E030E044EB53E4C701B6010E9428
:10176000E5106B017C0120E030E044EB53E4C7015D
:10177000B6010E945111181654F420E030E044EBF9
:1017800053E4C701B6010E94E4106B017C0120E024
:1017900030E0A901C501B4010E94331087FF0AC0DF
:1017A00020E030E044EB53E4C701B6010E94E510AD
:1017B0006B017C0120E030E044EB53E4C501B4014F
:1017C0000E945111181654F420E030E044EB53E429
:1017D000C701B6010E94E4106B017C010E94D00594
:1017E00020E030E0A901C301B2010E94331060E0A3
:1017F000811130C10E947906B701A601CE01019680
:101800000E94AF046AEB71E0CE0107960E947E044D
:10181000BE016F5F7F4FCE0107960E94FC040E94BD
:101820003801CE0107960E942F05CE0101960E9435
:101830002F0561E080E00E947906B501A401CE0188
:1018400001960E94AF0465EC71E0CE0107960E94FC
:101850007E04BE016F5F7F4FCE0107960E94FC049D
:101860000E943801CE0107960E942F05CE010196F5
:101870000E942F050E944003882309F460C00E9443
:10188000340320E030E0A901C301B2010E9433100B
:10189000412C512C3201811106C0412C512C80E881
:1018A000682E8FE3782E0E94D00520E030E0A90159
:1018B000C301B2010E94331060E08111F8C00E94A0
:1018C0007906B701A601CE0101960E94AF046AEB2A
:1018D00071E0CE0107960E947E04BE016F5F7F4FCC
:1018E000CE0107960E94FC040E943801CE010796A3
:1018F0000E942F05CE0101960E942F0561E080E035
:101900000E947906B501A401CE0101960E94AF04A0
:1019100065EC71E0CE0107960E947E04BE016F5F08
:101920007F4FCE0107960E94FC040E943801CE0131
:1019300007960E942F05CE0101960E942F0589E08F
:101940000E944A02209169032817190609F41ACE49
:1019500089E00E944A0221E0892B09F420E02093CB
:10196000690389E00E944A02019709F00BCE60EDFD
:1019700077E080E090E00E94020310926B031092E7
:101980006A032114310409F455CD0E947E01882395
:1019900009F450CD0E9400004DCDC701B6010E9450
:1019A000E51015CE8E8520E030E040E05FE3803228
:1019B00039F4C501B4010E94E4104B015C0109CE69
:1019C000C501B4010E94E510F8CF80E00E947906BD
:1019D000B701A601CE0101960E94AF0460ED71E04F
:1019E000CE0107960E947E04BE016F5F7F4FCE013D
:1019F00007960E94FC040E943801CE0107960E94BF
:101A00002F05CE0101960E942F0561E080E00E9423
:101A10007906B501A401CE0101960E94AF046BEDD9
:101A200071E05CCEC701B6010E94E51087CE8D85BE
:101A30002FE632E143E85AE3803239F4C501B401BC
:101A40000E94E4104B015C017BCEC501B4010E94F1
:101A5000E510F8CF80E00E947906B701A601CE011B
:101A600001960E94AF0460ED71E0CE0107960E94DE
:101A70007E04BE016F5F7F4FCE0107960E94FC047B
:101A80000E943801CE0107960E942F05CE010196D3
:101A90000E942F0561E080E00E947906B501A40153
:101AA000CE0101960E94AF046BED71E0CECE80E0D6
:101AB0000E947906B701A601CE0101960E94AF04EB
:101AC00060ED71E0CE0107960E947E04BE016F5F5B
:101AD0007F4FCE0107960E94FC040E943801CE0180
:101AE00007960E942F05CE0101960E942F0561E006
:101AF00080E00E947906B501A401CE0101960E9402
:101B0000AF046BED71E006CF86EE91E00E943204E7
:101B10000E94D00580EF91E00E94320461E080E0F5
:101B20000E9479060E94D0058FEF91E00E94320456
:101B30001ECF8FE092E0FACF8CE192E0F7CF89E2FE
:101B400092E0F4CF86E392E0F1CF83E492E00E944A
:101B500032040E94D00580E592E00E94320468EED3
:101B600073E080E090E00E9402030E94D0058EE5C1
:101B700092E00E94320461E080E00E9479068BE6E8
:101B800092E00E94320460ED77E080E090E00E94F5
:101B900002030E94D00585E792E00E94320461E0D2
:101BA00080E00E94790681E892E00E94320460EDB4
:101BB00077E080E090E00E940203D9CEEF920F938D
:101BC0001F93CF93DF93E80134E047FD34E1042E07
:101BD000000C550B57FF03C0519541955109E32E59
:101BE000022F242FAE010E94FC0DCE01DF91CF9178
:101BF0001F910F91EF900895A9E0B0E0E2E0FEE0C0
:101C00000C94B3106A01F22EB02E102FFBE3AF2E0E
:101C1000A01608F41BE31F5F012F27E0AE014F5F02
:101C20005F4F0E945B0FBC018981982F99709130A2
:101C300009F43FC09BE2E1FC04C09E2D9170E0FCE2
:101C40003AC05E2D5071E82FE87083FF46C084E0F3
:101C5000911101C083E0EF2DE81B8F1508F0E0E043
:101C6000D6018E2F20E2552351F1992329F0D60178
:101C70009C93C60101966C0196012D5F3F4FE2FED9
:101C800024C08EE4D6018C9391E411969C93119715
:101C900012968C93D9018E2F90E281111BC0E20F16
:101CA000F32FF11D10828EEF9FEF2996ECE00C943C
:101CB000CF109DE2C6CF90E2C4CF2D938150811109
:101CC000FCCFCE0ED11CE0E0D0CF8EE6D6018C93B7
:101CD00091E6DBCF9D938150E0CF482F447082FF87
:101CE0003DC084E0911101C083E08F1510F4EF2D09
:101CF000E81BD6018E2F20E2552309F1992329F004
:101D0000D6019C93C60101966C0196012D5F3F4F51
:101D1000E2FE1BC089E4D6018C938EE411968C936D
:101D2000119786E412968C93D9018E2F90E2882326
:101D300009F4B5CF9D938150FACF2D938150811135
:101D4000FCCFCE0ED11CE0E0D9CF89E6D6018C9332
:101D50008EE611968C93119786E6E4CF9B0177FF70
:101D600002C030E020E0A1E0B0E0911102C0B0E09C
:101D7000A0E0F9013196AE0FBF1F8B2C912CBB2038
:101D800009F461C05401EFEFAE1ABE0AAA0DBB1DE3
:101D9000FA161B0619F014F04F2D4A1B511188C07A
:101DA000E3FC59C07601A42FB0E2A1114FC0C40ECC
:101DB000D11C992309F45BC040E0D6011196F601CD
:101DC00090836D01552309F448C0012F060F9A81B5
:101DD000582F507184FF03C0913309F4015010163D
:101DE0000CF047C0093008F008E0EEE2FE2E5B017F
:101DF000A01AB10885019194819491082F3F320770
:101E000029F4D601FC92F60131966F01621773072F
:101E100094F1021713077CF5DB01A21BB30BAA2474
:101E2000A394B12CAC0EBD1EAA0DBB1D11968C91B6
:101E300021503109D601119628153905F4F0F60123
:101E400080836D01DBCFB12CA12CA0CFF701B19322
:101E50007F01A150AACF9111B0CFD601942F50E3AA
:101E600002C05D9391509111FCCFC40ED11C40E093
:101E7000ACCF01E0BACF80E3DBCF6217730731F458
:101E8000963388F4953311F4552369F0F601808375
:101E9000FD01842F90E2811108C0A40FB11D1C9296
:101EA00090E080E002CF81E3F1CF91938150F3CFB6
:101EB000911183CF8ACF283008F027E03327DA0149
:101EC000990F311D87FD916000966105710539F408
:101ED00032602E5F3D9330E32A95E1F708959F3FEE
:101EE00030F080387105610509F03C5F3C5F3D933F
:101EF000913008F08068911DDF93CF931F930F936B
:101F0000FF92EF92192F987F9695E92F96959695C7
:101F1000E90FFF27EE53FF4F99273327EE24FF24C5
:101F2000A701E70105900894079428F4360FE71EEF
:101F3000F81E491F511D660F771F881F991F0694B1
:101F4000A1F70590079428F4E70EF81E491F561FC5
:101F5000C11D770F881F991F661F0694A1F7059072
:101F6000079428F4F80E491F561FC71FD11D880F6C
:101F7000991F661F771F0694A1F70590079420F418
:101F8000490F561FC71FD81F990F661F771F881F3D
:101F90000694A9F784911095177041F0D695C795CE
:101FA00057954795F794E7941A95C1F7E8E6F0E05E
:101FB00068941590159135916591959105907FE202
:101FC0007395E118F10A430B560BC90BD009C0F702
:101FD000E10CF11E431F561FC91FD01D7EF4703344
:101FE00011F48A95E6CFE894015030F0080F0AF416
:101FF0000027021708F4202F2395022F7A3328F0A8
:1020000079E37D932A95E9F710C07D932A9589F6A7
:10201000069497956795379517951794E118F10AE7
:10202000430B560BC90BD00998F023957E917395FD
:102030007A3308F070E37C932013B8F77E917061D7
:102040007D9330F0839571E37D9370E32A95E1F7FA
:102050001124EF90FF900F911F91CF91DF9199275D
:1020600087FD909508950E94381008F481E0089546
:10207000990F0008550FAA0BE0E8FEEF1616170699
:10208000E807F907C0F012161306E407F50798F001
:10209000621B730B840B950B39F40A2661F0232B1A
:1020A000242B252B21F408950A2609F4A140A69596
:1020B0008FEF811D811D089597F99F6780E870E07B
:1020C00060E008959FEF80EC089500240A941616AE
:1020D000170618060906089500240A941216130616
:1020E000140605060895092E0394000C11F48823A4
:1020F00052F0BB0F40F4BF2B11F460FF04C06F5FC0
:102100007F4F8F4F9F4F089557FD9058440F551F95
:1021100059F05F3F71F04795880F97FB991F61F069
:102120009F3F79F087950895121613061406551FE0
:10213000F2CF4695F1DF08C0161617061806991F4C
:10214000F1CF86957105610508940895E894BB2741
:1021500066277727CB0197F908952F923F924F92E8
:102160005F926F927F928F929F92AF92BF92CF9227
:10217000DF92EF92FF920F931F93CF93DF93CDB730
:10218000DEB7CA1BDB0B0FB6F894DEBF0FBECDBFA8
:1021900009942A88398848885F846E847D848C8479
:1021A0009B84AA84B984C884DF80EE80FD800C8182
:1021B0001B81AA81B981CE0FD11D0FB6F894DEBF65
:1021C0000FBECDBFED0108955058BB27AA270E942E
:1021D000FC100C9473100E94651038F00E946C1073
:1021E00020F039F49F3F19F426F40C9462100EF499
:1021F000E095E7FB0C945C10E92F0E94841058F3E3
:10220000BA17620773078407950720F079F4A6F5DB
:102210000C94A6100EF4E0950B2EBA2FA02D0B01F6
:10222000B90190010C01CA01A0011124FF27591B1B
:1022300099F0593F50F4503E68F11A16F040A22F21
:10224000232F342F4427585FF3CF46953795279592
:10225000A795F0405395C9F77EF41F16BA0B620B91
:10226000730B840BBAF09150A1F0FF0FBB1F661FD8
:10227000771F881FC2F70EC0BA0F621F731F841F1B
:1022800048F4879577956795B795F7959E3F08F041
:10229000B0CF9395880F08F09927EE0F9795879503
:1022A00008950E94381008F48FEF0895EE0FFF1F75
:1022B0000590F491E02D09940F931F93CF93DF9332
:1022C0008230910510F482E090E0E0914904F091B1
:1022D0004A0430E020E0B0E0A0E0309799F4211506
:1022E000310509F44AC0281B390B24303105D8F5D3
:1022F0008A819B816115710589F1FB01938382833A
:10230000FE0111C040815181028113814817590794
:10231000E0F04817590799F4109761F012960C9362
:10232000129713961C933296CF01DF91CF911F9194
:102330000F9108950093490410934A04F4CF211596
:10234000310551F04217530738F0A901DB019A011A
:10235000BD01DF01F801C1CFEF01F9CF90934A042D
:1023600080934904CDCFFE01E20FF31F8193919337
:102370002250310939832883D7CF209147043091E7
:102380004804232B41F42091020130910301309342
:102390004804209347042091000130910101211548
:1023A000310541F42DB73EB740910401509105012C
:1023B000241B350BE0914704F0914804E217F30722
:1023C000A0F42E1B3F0B2817390778F0AC014E5FA5
:1023D0005F4F2417350748F04E0F5F1F5093480496
:1023E00040934704819391939FCFF0E0E0E09CCF2E
:1023F000CF93DF930097E9F0FC01329713821282AA
:10240000A0914904B0914A04ED0130E020E010971A
:10241000A1F420813181820F931F209147043091D4
:1024200048042817390709F061C0F0934804E09385
:102430004704DF91CF910895EA01CE17DF07E8F551
:102440004A815B819E0141155105B1F7E901FB838A
:10245000EA8349915991C40FD51FEC17FD0761F428
:10246000808191810296840F951FE9019983888369
:10247000828193819B838A83F0E0E0E012968D91C4
:102480009C9113970097B9F52D913C911197CD012F
:102490000296820F931F2091470430914804281719
:1024A000390739F6309751F510924A0410924904D1
:1024B000B0934804A0934704BCCFD383C283408128
:1024C0005181840F951FC817D90761F44E5F5F4F84
:1024D00088819981480F591F518340838A819B814C
:1024E000938382832115310509F0B0CFF0934A041C
:1024F000E09349049ECFFD01DC01C0CF138212821C
:10250000D7CFB0E0A0E0E7E8F2E10C94AF108C0187
:10251000009751F4CB010E945C118C01C801CDB72A
:10252000DEB7E0E10C94CB10FC01E60FF71F9C0135
:1025300022503109E217F30708F49DC0D901CD916B
:10254000DC911197C617D70798F0C530D10530F345
:10255000CE0104978617970708F3C61BD70B22975F
:10256000C193D1936D937C93CF010E94F811D6CF84
:102570005B01AC1ABD0A4C018C0E9D1EA091490452
:10258000B0914A04512C412CF12CE12C109731F5DB
:1025900080914704909148048815990509F05CC022
:1025A0004616570608F058C080910001909101012D
:1025B000009741F48DB79EB74091040150910501F9
:1025C000841B950BE817F90708F055C0F0934804F1
:1025D000E0934704F90171836083A0CF8D919C91B2
:1025E000119712966C90129713967C901397A815DA
:1025F000B90559F56C0142E0C40ED11CCA14DB04C4
:1026000020F1AC014A195B09DA011296159780F0A6
:102610006282738251834083D9016D937C93E1146C
:10262000F10471F0D7011396FC93EE93129776CFD5
:1026300022968C0F9D1FF90191838083F301EFCFC8
:10264000F0934A04E093490469CF4816590608F408
:102650002C017D01D3019ACFCB010E945C117C013A
:10266000009749F0AE01B8010E943E13C8010E94D4
:10267000F811870153CF10E000E050CFFB01DC01DF
:1026800002C001900D9241505040D8F70895FB01CF
:10269000DC0101900D920020E1F70895F894FFCF3E
:1026A00000004B0480008B0291029E02A802B2023D
:1026B000BC02C60200010203000100230000021355
:1026C00000040503100403032003050300000000B9
:1026D000B4010B01410101027201500164010000CB
:1026E0000000F703EC032F04C203E503D203C30386
:1026F00000000000B2060B012F042E042020204D04
:1027000061696E204D656E752020003C003E004DD5
:10271000656E75204D617374657200506C656173F0
:10272000652053656C65637400596F752073656C23
:1027300065637465643A00202020486F6D65205001
:10274000616765003E616E676C6520313A2000204C
:10275000616E676C6520323A20003E416E676C65A1
:1027600020313A200020416E676C6520323A20000B
:1027700020416E676C6520313A20003E416E676CE7
:102780006520323A20002020204C6F67696E2000BF
:10279000456E74657220557365722049443A004550
:1027A0006E7465722070617373776F72643A004F54
:1027B0007074696F6E203320202020004F70746980
:1027C0006F6E203420202020004F7074696F6E20BF
:1027D0003520202020004F7074696F6E2036202035
:1027E0002020004F7074696F6E2037202020200059
:1027F00044657369676E65642042793A20005375B9
:10280000727961736172616468690042313830398C
:102810003736455000416C6578205368616A616EB7
:10282000004231383036343945500020486F6D65EC
:1028300000204368616E6765205573657200204F04
:102840007074696F6E203300204F7074696F6E2052
:102850003400204F7074696F6E203500204F707403
:0E286000696F6E2036002041626F75740000B3
:107E0000112484B714BE81FFF0D085E080938100F7
:107E100082E08093C00088E18093C10086E0809377
:107E2000C20080E18093C4008EE0C9D0259A86E02C
:107E300020E33CEF91E0309385002093840096BBD3
:107E4000B09BFECF1D9AA8958150A9F7CC24DD24C4
:107E500088248394B5E0AB2EA1E19A2EF3E0BF2EE7
:107E6000A2D0813461F49FD0082FAFD0023811F036
:107E7000013811F484E001C083E08DD089C08234E0
:107E800011F484E103C0853419F485E0A6D080C0E4
:107E9000853579F488D0E82EFF2485D0082F10E0AE
:107EA000102F00270E291F29000F111F8ED06801E7
:107EB0006FC0863521F484E090D080E0DECF843638
:107EC00009F040C070D06FD0082F6DD080E0C81688
:107ED00080E7D80618F4F601B7BEE895C0E0D1E017
:107EE00062D089930C17E1F7F0E0CF16F0E7DF06D8
:107EF00018F0F601B7BEE89568D007B600FCFDCFD4
:107F0000A601A0E0B1E02C9130E011968C91119780
:107F100090E0982F8827822B932B1296FA010C0160
:107F200087BEE89511244E5F5F4FF1E0A038BF0790
:107F300051F7F601A7BEE89507B600FCFDCF97BE46
:107F4000E89526C08437B1F42ED02DD0F82E2BD052
:107F50003CD0F601EF2C8F010F5F1F4F84911BD097
:107F6000EA94F801C1F70894C11CD11CFA94CF0C13
:107F7000D11C0EC0853739F428D08EE10CD085E9AC
:107F80000AD08FE07ACF813511F488E018D01DD067
:107F900080E101D065CF982F8091C00085FFFCCF94
:107FA0009093C60008958091C00087FFFCCF809118
:107FB000C00084FD01C0A8958091C6000895E0E648
:107FC000F0E098E1908380830895EDDF803219F02E
:107FD00088E0F5DFFFCF84E1DECF1F93182FE3DFCA
:107FE0001150E9F7F2DF1F91089580E0E8DFEE27F6
:047FF000FF270994CA
:027FFE00040479
:0400000300007E007B
:00000001FF
